{
  "transactions": [
    {
      "hash": "0x9a61199eaf94f3c0c174598add497c5c749e922061b564b4903e8bf61019f07f",
      "transactionType": "CALL",
      "contractName": null,
      "contractAddress": "0x779877a7b0d9e8603169ddbd7836e478b4624789",
      "function": "transferAndCall(address,uint256,bytes)",
      "arguments": [
        "0x9DdfaCa8183c41ad55329BdeeD9F6A8d53168B1B",
        "3000000000000000000",
        "0x5c38027b567191289ca438deb07361393fc996a31aaf88e0d1773737faa3369a"
      ],
      "transaction": {
        "from": "0x46e668f64795aee081c6270279c11a1ba7b3d6cf",
        "to": "0x779877a7b0d9e8603169ddbd7836e478b4624789",
        "gas": "0x14cbb",
        "value": "0x0",
        "input": "0x4000aea00000000000000000000000009ddfaca8183c41ad55329bdeed9f6a8d53168b1b00000000000000000000000000000000000000000000000029a2241af62c0000000000000000000000000000000000000000000000000000000000000000006000000000000000000000000000000000000000000000000000000000000000205c38027b567191289ca438deb07361393fc996a31aaf88e0d1773737faa3369a",
        "nonce": "0x47",
        "chainId": "0xaa36a7"
      },
      "additionalContracts": [],
      "isFixedGasLimit": false
    }
  ],
  "receipts": [
    {
      "status": "0x1",
      "cumulativeGasUsed": "0x1c7ce08",
      "logs": [
        {
          "address": "0x779877a7b0d9e8603169ddbd7836e478b4624789",
          "topics": [
            "0xddf252ad1be2c89b69c2b068fc378daa952ba7f163c4a11628f55a4df523b3ef",
            "0x00000000000000000000000046e668f64795aee081c6270279c11a1ba7b3d6cf",
            "0x0000000000000000000000009ddfaca8183c41ad55329bdeed9f6a8d53168b1b"
          ],
          "data": "0x00000000000000000000000000000000000000000000000029a2241af62c0000",
          "blockHash": "0x824ebc46d6fd4f3f44de13101ece4a97383c69c76d9e5eb8cb19c38eedd8fa0f",
          "blockNumber": "0xa650c8",
          "blockTimestamp": "0x6a10abf4",
          "transactionHash": "0x9a61199eaf94f3c0c174598add497c5c749e922061b564b4903e8bf61019f07f",
          "transactionIndex": "0x122",
          "logIndex": "0x2d7",
          "removed": false
        },
        {
          "address": "0x779877a7b0d9e8603169ddbd7836e478b4624789",
          "topics": [
            "0xe19260aff97b920c7df27010903aeb9c8d2be5d310a2c67824cf3f15396e4c16",
            "0x00000000000000000000000046e668f64795aee081c6270279c11a1ba7b3d6cf",
            "0x0000000000000000000000009ddfaca8183c41ad55329bdeed9f6a8d53168b1b"
          ],
          "data": "0x00000000000000000000000000000000000000000000000029a2241af62c0000000000000000000000000000000000000000000000000000000000000000004000000000000000000000000000000000000000000000000000000000000000205c38027b567191289ca438deb07361393fc996a31aaf88e0d1773737faa3369a",
          "blockHash": "0x824ebc46d6fd4f3f44de13101ece4a97383c69c76d9e5eb8cb19c38eedd8fa0f",
          "blockNumber": "0xa650c8",
          "blockTimestamp": "0x6a10abf4",
          "transactionHash": "0x9a61199eaf94f3c0c174598add497c5c749e922061b564b4903e8bf61019f07f",
          "transactionIndex": "0x122",
          "logIndex": "0x2d8",
          "removed": false
        },
        {
          "address": "0x9ddfaca8183c41ad55329bdeed9f6a8d53168b1b",
          "topics": [
            "0x1ced9348ff549fceab2ac57cd3a9de38edaaab274b725ee82c23e8fc8c4eec7a",
            "0x5c38027b567191289ca438deb07361393fc996a31aaf88e0d1773737faa3369a"
          ],
          "data": "0x000000000000000000000000000000000000000000000001e5b7d5c5487a04890000000000000000000000000000000000000000000000020f59f9e03ea60489",
          "blockHash": "0x824ebc46d6fd4f3f44de13101ece4a97383c69c76d9e5eb8cb19c38eedd8fa0f",
          "blockNumber": "0xa650c8",
          "blockTimestamp": "0x6a10abf4",
          "transactionHash": "0x9a61199eaf94f3c0c174598add497c5c749e922061b564b4903e8bf61019f07f",
          "transactionIndex": "0x122",
          "logIndex": "0x2d9",
          "removed": false
        }
      ],
      "logsBloom": "0x00000004000000000000000000000000000000000020000000000000020000000000040000000000000000000000000000000000000000000000000000000000000000000000000000000008000000000400000000000000000020000020000008000000000000000000000000000000000000000000000000000010000040000000000000000000000000010000800000000020000000000000000000002000000000000000000040000000410000000000000000000000000004000000000000000002000000000000000000000000000000000000000180000000000000000010000000000000800000000000000000000000000000000000000000000000",
      "type": "0x2",
      "transactionHash": "0x9a61199eaf94f3c0c174598add497c5c749e922061b564b4903e8bf61019f07f",
      "transactionIndex": "0x122",
      "blockHash": "0x824ebc46d6fd4f3f44de13101ece4a97383c69c76d9e5eb8cb19c38eedd8fa0f",
      "blockNumber": "0xa650c8",
      "gasUsed": "0xf0e5",
      "effectiveGasPrice": "0x3d8c9954",
      "from": "0x46e668f64795aee081c6270279c11a1ba7b3d6cf",
      "to": "0x779877a7b0d9e8603169ddbd7836e478b4624789",
      "contractAddress": null
    }
  ],
  "libraries": [],
  "pending": [],
  "returns": {},
  "timestamp": 1779477493953,
  "chain": 11155111,
  "commit": null
}