{
  "transactions": [
    {
      "hash": "0xad0b361440e2346b10a1c0f8a2d0dce988d193b1490f3970cb5aebc22b25fc4c",
      "transactionType": "CALL",
      "contractName": null,
      "contractAddress": "0x779877a7b0d9e8603169ddbd7836e478b4624789",
      "function": "transferAndCall(address,uint256,bytes)",
      "arguments": [
        "0x9DdfaCa8183c41ad55329BdeeD9F6A8d53168B1B",
        "3000000000000000000",
        "0x5c38027b567191289ca438deb07361393fc996a31aaf88e0d1773737faa3369a"
      ],
      "transaction": {
        "from": "0x46e668f64795aee081c6270279c11a1ba7b3d6cf",
        "to": "0x779877a7b0d9e8603169ddbd7836e478b4624789",
        "gas": "0x14cbb",
        "value": "0x0",
        "input": "0x4000aea00000000000000000000000009ddfaca8183c41ad55329bdeed9f6a8d53168b1b00000000000000000000000000000000000000000000000029a2241af62c0000000000000000000000000000000000000000000000000000000000000000006000000000000000000000000000000000000000000000000000000000000000205c38027b567191289ca438deb07361393fc996a31aaf88e0d1773737faa3369a",
        "nonce": "0x48",
        "chainId": "0xaa36a7"
      },
      "additionalContracts": [],
      "isFixedGasLimit": false
    }
  ],
  "receipts": [
    {
      "status": "0x1",
      "cumulativeGasUsed": "0x1681eec",
      "logs": [
        {
          "address": "0x779877a7b0d9e8603169ddbd7836e478b4624789",
          "topics": [
            "0xddf252ad1be2c89b69c2b068fc378daa952ba7f163c4a11628f55a4df523b3ef",
            "0x00000000000000000000000046e668f64795aee081c6270279c11a1ba7b3d6cf",
            "0x0000000000000000000000009ddfaca8183c41ad55329bdeed9f6a8d53168b1b"
          ],
          "data": "0x00000000000000000000000000000000000000000000000029a2241af62c0000",
          "blockHash": "0x7f0c861052c08376d3519b59c0204e90141d9b3afc4602c731180be6d648b9ad",
          "blockNumber": "0xa689c5",
          "blockTimestamp": "0x6a135f80",
          "transactionHash": "0xad0b361440e2346b10a1c0f8a2d0dce988d193b1490f3970cb5aebc22b25fc4c",
          "transactionIndex": "0x83",
          "logIndex": "0x14c",
          "removed": false
        },
        {
          "address": "0x779877a7b0d9e8603169ddbd7836e478b4624789",
          "topics": [
            "0xe19260aff97b920c7df27010903aeb9c8d2be5d310a2c67824cf3f15396e4c16",
            "0x00000000000000000000000046e668f64795aee081c6270279c11a1ba7b3d6cf",
            "0x0000000000000000000000009ddfaca8183c41ad55329bdeed9f6a8d53168b1b"
          ],
          "data": "0x00000000000000000000000000000000000000000000000029a2241af62c0000000000000000000000000000000000000000000000000000000000000000004000000000000000000000000000000000000000000000000000000000000000205c38027b567191289ca438deb07361393fc996a31aaf88e0d1773737faa3369a",
          "blockHash": "0x7f0c861052c08376d3519b59c0204e90141d9b3afc4602c731180be6d648b9ad",
          "blockNumber": "0xa689c5",
          "blockTimestamp": "0x6a135f80",
          "transactionHash": "0xad0b361440e2346b10a1c0f8a2d0dce988d193b1490f3970cb5aebc22b25fc4c",
          "transactionIndex": "0x83",
          "logIndex": "0x14d",
          "removed": false
        },
        {
          "address": "0x9ddfaca8183c41ad55329bdeed9f6a8d53168b1b",
          "topics": [
            "0x1ced9348ff549fceab2ac57cd3a9de38edaaab274b725ee82c23e8fc8c4eec7a",
            "0x5c38027b567191289ca438deb07361393fc996a31aaf88e0d1773737faa3369a"
          ],
          "data": "0x0000000000000000000000000000000000000000000000020f59f9e03ea6048900000000000000000000000000000000000000000000000238fc1dfb34d20489",
          "blockHash": "0x7f0c861052c08376d3519b59c0204e90141d9b3afc4602c731180be6d648b9ad",
          "blockNumber": "0xa689c5",
          "blockTimestamp": "0x6a135f80",
          "transactionHash": "0xad0b361440e2346b10a1c0f8a2d0dce988d193b1490f3970cb5aebc22b25fc4c",
          "transactionIndex": "0x83",
          "logIndex": "0x14e",
          "removed": false
        }
      ],
      "logsBloom": "0x00000004000000000000000000000000000000000020000000000000020000000000040000000000000000000000000000000000000000000000000000000000000000000000000000000008000000000400000000000000000020000020000008000000000000000000000000000000000000000000000000000010000040000000000000000000000000010000800000000020000000000000000000002000000000000000000040000000410000000000000000000000000004000000000000000002000000000000000000000000000000000000000180000000000000000010000000000000800000000000000000000000000000000000000000000000",
      "type": "0x2",
      "transactionHash": "0xad0b361440e2346b10a1c0f8a2d0dce988d193b1490f3970cb5aebc22b25fc4c",
      "transactionIndex": "0x83",
      "blockHash": "0x7f0c861052c08376d3519b59c0204e90141d9b3afc4602c731180be6d648b9ad",
      "blockNumber": "0xa689c5",
      "gasUsed": "0xf0e5",
      "effectiveGasPrice": "0x3dd3bca9",
      "from": "0x46e668f64795aee081c6270279c11a1ba7b3d6cf",
      "to": "0x779877a7b0d9e8603169ddbd7836e478b4624789",
      "contractAddress": null
    }
  ],
  "libraries": [],
  "pending": [],
  "returns": {},
  "timestamp": 1779654529150,
  "chain": 11155111,
  "commit": null
}